S00F000053797374656D322E737265635E
S11300000C9434000C9451000C94B7000C945100DF
S11300100C9451000C9451000C9451000C94510018
S11300200C9451000C9451000C9451000C94D50084
S11300300C9451000C9451000C9451000C945100F8
S11300400C9451000C9451000C9451000C945100E8
S11300500C9451000C9451000C9451000C945100D8
S11300600C9451000C94510011241FBECFEFD8E022
S1130070DEBFCDBF11E0A0E0B1E0E6E4FBE002C0EA
S113008005900D92A636B107D9F721E0A6E6B1E0B6
S113009001C01D92AD36B207E1F70E944C020C94E8
S11300A0A1050C94000080E480937C0087E8809391
S11300B07A000895EAE7F0E080818064808380918B
S11300C07A0086FDFCCF80917800909179000895A4
S11300D00F931F93CF93DF93CDB7DEB760970FB61F
S11300E0F894DEBF0FBECDBF81E00E94D1018FE343
S11300F09FE10197F1F700C0000060E080E00E94FA
S1130100ED0180916901882329F081E091E00E944A
S11301103F0204C080E191E00E943F0261E080E080
S11301200E94ED0180916B0190916C019F938F93DC
S11301308EE191E09F938F938E010F5F1F4F1F936A
S11301400F930E94B702C8010E943F020F900F90C4
S11301500F900F900F900F9060960FB6F894DEBF3B
S11301600FBECDBFDF91CF911F910F9108951F92C4
S11301700F920FB60F9211248F939F938091690170
S1130180813061F480916B0190916C0101969093A0
S11301906C0180936B0181E080936A019F918F9140
S11301A00F900FBE0F901F9018951F920F920FB6CD
S11301B00F9211242F933F934F935F936F937F93E9
S11301C08F939F93AF93BF93EF93FF930E945A0033
S11301D0863B23E0920748F520910001222341F158
S11301E09C012B583240273C310548F481E0809330
S11301F0690180936A0185B1826085B913C0815910
S11302009140873C910570F41092690110926C0141
S113021010926B0181E0809368018AE0809366010B
S1130220109267011092000103C081E080930001E5
S1130230809166018823D9F0809167018F5F809354
S1130240670180916701863090F095B181E089273C
S113025085B980916601815080936601109267018F
S113026080916601811103C085B18E7F85B9FF91AC
S1130270EF91BF91AF919F918F917F916F915F911A
S11302804F913F912F910F900FBE0F901F90189593
S11302908AB1877F8AB984B1836084B9E9E6F0E0E2
S11302A08081886080838DB382608DBBE1E8F0E05B
S11302B080818D6080838DE093E0909389008093AA
S11302C08800EFE6F0E08081826080830E94530022
S11302D078940E940502089580916801882339F179
S11302E081E00E94D1018FE39FE10197F1F700C003
S11302F0000060E080E00E94ED0188E291E00E944D
S11303003F0261E080E00E94ED018AE391E00E94F7
S11303103F029FEF23ED80E3915020408040E1F7BE
S113032000C000001092680181E080936A0180910E
S11303306A01882389F2809168018111CDCF0E94DE
S1130340680010926A01C8CFCF93DF93C82FC62BE1
S1130350DC2FDC600E947502811108C08EE40E94CB
S113036096028D2F0E9496020E94AF0285E08A9524
S1130370F1F70000CB7FC8600E947502811108C0AC
S11303808EE40E9496028C2F0E9496020E94AF0275
S113039087EC90E00197F1F700C00000DF91CF9166
S11303A00895CF93C82F60E0807F0E94A40160E08D
S11303B08C2F8295807F0E94A401CF910895CF93C2
S11303C0C82F61E0807F0E94A40161E08C2F829598
S11303D0807F0E94A401CF910895CF93DF9300D032
S11303E0CDB7DEB790E8998390EC9A83E1E0F0E032
S11303F0EC0FFD1FE60FF11D9081890F0E94D101C2
S11304000F900F90DF91CF9108952FEF80E792E046
S1130410215080409040E1F700C000000E946C022F
S113042060E080E30E94A4018FE19EE40197F1F76C
S113043000C0000060E080E30E94A40187E592E030
S11304400197F1F700C0000060E080E30E94A4017E
S113045060E080E20E94A40188E20E94D1018CE065
S11304600E94D10186E00E94D10181E00E94D10165
S11304708FE39FE10197F1F700C000000895CF9347
S1130480DF93EC0103C021960E94DF018881811172
S1130490FACFDF91CF9108950E94480160E080E097
S11304A00E94ED018BE491E00E943F0261E080E054
S11304B00E94ED018AE591E00E943F022FEF87EA56
S11304C091E6215080409040E1F700C000000E9476
S11304D068000E946C01FFCF88E48093B8001092FA
S11304E0B90084E08093BC00089584EA8093BC0042
S11304F080E090E005C00196813127E29207A0F4E4
S11305002091BC002223BCF78091B900887F8830F9
S113051039F08091B900887F803121F480E008951A
S113052080E0089581E0089581E008958093BB0000
S113053084E88093BC008091BC008823E4F7809118
S1130540B900887F883139F08091B900887F88327A
S113055021F480E0089580E0089581E0089584E91D
S11305608093BC008091BC0084FDFCCF0895AEE074
S1130570B0E0EDEBF2E00C9478050D891E8986E07D
S11305808C831A8309838FEF9FE79E838D83AE014B
S1130590475E5F4F6F89788DCE0101960E94D90224
S11305A0EF81F885E00FF11F10822E96E4E00C94A1
S11305B09405ABE0B0E0EFEDF2E00C946A056C0159
S11305C07B018A01FC0117821682838181FFCCC1E1
S11305D0CE0101963C01F6019381F70193FD8591CB
S11305E093FF81917F01882309F4BAC1853239F4DC
S11305F093FD859193FF81917F01853229F4B601A2
S113060090E00E94D004E7CF912C212C312CFFE103
S1130610F315D8F08B3279F038F4803279F08332E4
S1130620A1F4232D20611DC08D3261F0803369F463
S1130630232D216016C0832D8260382EE32DE460C3
S11306403E2E2AC0F32DF8601DC037FC2DC020EDCE
S1130650280F2A3040F08E32B9F436FC81C1232DA4
S11306602064322E19C036FE06C08AE0989E200D02
S11306701124922E11C0EAE02E9E200D1124222E68
S1130680F32DF0623F2E08C08C3621F4832D806850
S1130690382E02C0883641F4F70193FD859193FF0B
S11306A081917F018111B3CF982F9F7D9554933011
S11306B028F40C5F1F4F9FE399830DC0833631F0FC
S11306C0833771F0833509F059C021C0F801808166
S11306D089830E5F1F4F88248394912C530113C088
S11306E02801F2E04F0E511CF801A080B18036FEC3
S11306F003C0692D70E002C06FEF7FEFC5010E9457
S1130700C5044C018201F32DFF773F2E16C028014A
S113071022E0420E511CF801A080B18036FE03C0D5
S1130720692D70E002C06FEF7FEFC5010E94BA042B
S11307304C01F32DF0683F2E820133FC1BC0822D47
S113074090E088169906B0F4B60180E290E00E9429
S1130750D0042A94F4CFF50137FC859137FE8191BA
S11307605F01B60190E00E94D00421102A9421E098
S1130770821A91088114910471F7E8C0843611F04B
S1130780893641F5F80137FE07C0608171818281A5
S113079093810C5F1F4F08C060817181072E000C8C
S11307A0880B990B0E5F1F4FF32DFF763F2E97FF9B
S11307B009C090958095709561957F4F8F4F9F4F9D
S11307C0F0683F2E2AE030E0A3010E940C05882E39
S11307D0861845C0853731F4232D2F7EB22E2AE0AA
S11307E030E025C0932D997FB92E8F36C1F018F4CF
S11307F0883579F0B5C0803719F0883721F0B0C05A
S1130800E92FE061BE2EB4FE0DC0FB2DF460BF2EB7
S113081009C034FE0AC0292F2660B22E06C028E083
S113082030E005C020E130E002C020E132E0F80110
S1130830B7FE07C060817181828193810C5F1F4F75
S113084006C06081718180E090E00E5F1F4FA301BC
S11308500E940C05882E8618FB2DFF773F2E36FE4E
S11308600DC0232D2E7FA22E891458F434FE0BC004
S113087032FC09C0832D8E7EA82E05C0B82CA32C73
S113088003C0B82C01C0B92CA4FE0FC0FE01E80DB2
S1130890F11D8081803321F49A2D997EA92E09C0FF
S11308A0A2FE06C0B394B39404C08A2D867809F0DE
S11308B0B394A3FC11C0A0FE06C0B21488F4280CA3
S11308C0922C9B180EC0B21460F4B60180E290E042
S11308D00E94D004B394F7CFB21418F42B1802C0BA
S11308E0982C212CA4FE10C0B60180E390E00E9455
S11308F0D004A2FE17C0A1FC03C088E790E002C0A8
S113090088E590E0B6010CC08A2D867859F0A1FEE6
S113091002C08BE201C080E2A7FC8DE2B60190E048
S11309200E94D004891438F4B60180E390E00E9458
S1130930D0049A94F7CF8A94F301E80DF11D8081D5
S1130940B60190E00E94D0048110F5CF222009F472
S113095042CEB60180E290E00E94D0042A94F6CF01
S1130960F6018681978102C08FEF9FEF2B96E2E11B
S11309700C948605FC010590615070400110D8F775
S1130980809590958E0F9F1F0895FC0161507040D3
S113099001900110D8F7809590958E0F9F1F0895B0
S11309A00F931F93CF93DF93FB01238121FD03C09A
S11309B08FEF9FEF2CC022FF16C046815781248100
S11309C035814217530744F4A081B1819D012F5F03
S11309D03F4F318320838C93268137812F5F3F4F94
S11309E03783268314C08B01EC01FB010084F1855D
S11309F0E02D0995892BE1F6D80116968D919C91ED
S1130A001797019617969C938E931697CE01DF91B4
S1130A10CF911F910F910895FA01AA27283051F11F
S1130A20203181F1E8946F936E7F6E5F7F4F8F4F1B
S1130A309F4FAF4FB1E03ED0B4E03CD0670F781F7A
S1130A40891F9A1FA11D680F791F8A1F911DA11D5F
S1130A506A0F711D811D911DA11D20D009F4689498
S1130A603F912AE0269F11243019305D3193DEF640
S1130A70CF010895462F4770405D4193B3E00FD0F6
S1130A80C9F7F6CF462F4F70405D4A3318F0495DE1
S1130A9031FD4052419302D0A9F7EACFB4E0A695C4
S1130AA09795879577956795BA95C9F700976105E6
S1130AB0710508959B01AC010A2E0694579547953C
S1130AC037952795BA95C9F7620F731F841F951F31
S1130AD0A01D08952F923F924F925F926F927F9242
S1130AE08F929F92AF92BF92CF92DF92EF92FF923A
S1130AF00F931F93CF93DF93CDB7DEB7CA1BDB0BE6
S1130B000FB6F894DEBF0FBECDBF09942A8839888A
S1130B1048885F846E847D848C849B84AA84B98491
S1130B20C884DF80EE80FD800C811B81AA81B9819D
S1130B30CE0FD11D0FB6F894DEBF0FBECDBFED01B1
S1090B400895F894FFCFB4
S1130B460153595354454D3A20414354495645009F
S1130B5653595354454D3A20524541445900436F25
S1130B66756E743A20257500202020205245534581
S1130B7654204E4F57212020200052657475726E02
S1130B86696E672052454144592000496E74727556
S1130B9673696F6E204465742E00537461727469B0
S1090BA66E672E2E2E00E6
S9030000FC
