S00E000053797374656D2E7372656391
S11300000C9434000C9451000C94A0010C945100F5
S11300100C9451000C9451000C9451000C94510018
S11300200C9451000C9451000C9451000C94D40184
S11300300C9451000C9451000C9451000C945100F8
S11300400C9451000C9451000C9451000C945100E8
S11300500C9451000C9451000C9451000C945100D8
S11300600C9451000C94510011241FBECFEFD8E022
S1130070DEBFCDBF12E0A0E0B1E0E0E8FEE002C0E8
S113008005900D92A430B107D9F722E0A4E0B2E0C4
S113009001C01D92A930B207E1F70E9443020C94FB
S11300A03E070C94000080E480937C0087E88093F2
S11300B07A000895EAE7F0E080818064808380918B
S11300C07A0086FDFCCF80917800909179000895A4
S11300D088E48093B8001092B90084E08093BC0057
S11300E0089584EA8093BC008091BC008823E4F7DF
S11300F08091B900887F883039F08091B900887F79
S1130100803121F480E0089580E0089581E008952D
S11301108093BB0084E88093BC008091BC0088235A
S1130120E4F78091B900887F883139F08091B90073
S1130130887F883221F480E0089580E0089581E08A
S1130140089584E98093BC008091BC0084FDFCCFB9
S11301500895CF93DF93C82FC62BDC2FDC600E9459
S11301607100811108C08EE40E9488008D2F0E94C6
S113017088000E94A10085E08A95F1F70000CB7FFA
S1130180C8600E947100811108C08EE40E9488003A
S11301908C2F0E9488000E94A10087EC90E00197B8
S11301A0F1F700C00000DF91CF910895CF93C82FDD
S11301B060E0807F0E94A90060E08C2F8295807FA0
S11301C00E94A900CF910895CF93C82F61E0807F4A
S11301D00E94A90061E08C2F8295807F0E94A90073
S11301E0CF910895CF93DF9300D0CDB7DEB790E8D9
S11301F0998390EC9A83E1E0F0E0EC0FFD1FE60FA9
S1130200F11D9081890F0E94D6000F900F90DF910D
S1130210CF9108952FEF80E792E0215080409040E5
S1130220E1F700C000000E94680060E080E30E94E3
S1130230A9008FE19EE40197F1F700C0000060E09F
S113024080E30E94A90087E592E00197F1F700C0DE
S1130250000060E080E30E94A90060E080E20E9468
S1130260A90088E20E94D6008CE00E94D60086E0B5
S11302700E94D60081E00E94D6008FE39FE101979F
S1130280F1F700C000000895CF93DF93EC0103C0A1
S113029021960E94E40088818111FACFDF91CF91E9
S11302A008950F931F93CF93DF93CDB7DEB7609775
S11302B00FB6F894DEBF0FBECDBF81E00E94D6001A
S11302C08FE39FE10197F1F700C0000060E080E058
S11302D00E94F20080910502882329F087E091E0D2
S11302E00E94440104C086E191E00E94440161E05F
S11302F080E00E94F20080910702909108029F938F
S11303008F9384E291E09F938F938E010F5F1F4F31
S11303101F930F930E945404C8010E9444010F903C
S11303200F900F900F900F900F9060960FB6F89467
S1130330DEBF0FBECDBFDF91CF911F910F91089506
S11303401F920F920FB60F9211242F933F934F9346
S11303505F936F937F938F939F93AF93BF93EF9329
S1130360FF9380910502813071F48091070290918E
S113037008020196909308028093070281E080931B
S113038006020E945903FF91EF91BF91AF919F9193
S11303908F917F916F915F914F913F912F910F902A
S11303A00FBE0F901F9018951F920F920FB60F92C9
S11303B011242F933F934F935F936F937F938F9366
S11303C09F93AF93BF93EF93FF930E945A00863B92
S11303D023E0920708F520910001222301F19C01FA
S11303E02B583240273C310530F481E080930502DC
S11303F0809306020EC081599140873C910548F4D0
S113040010920502109208021092070281E0809374
S113041004021092000103C081E080930001FF9167
S1130420EF91BF91AF919F918F917F916F915F9168
S11304304F913F912F910F900FBE0F901F901895E1
S11304408AB1877F8AB9E9E6F0E080818860808399
S113045080818B7F80838DB382608DBBE1E8F0E087
S113046080818D6080838DE093E0909389008093F8
S11304708800EFE6F0E08081826080830E94530070
S11304800E940A0108950E942002789460E080E0AE
S11304900E94F2008EE291E00E94440161E080E05B
S11304A00E94F2008DE391E00E9444012FEF87EA5D
S11304B091E6215080409040E1F700C000000E9486
S11304C0B4030E94510180910402882339F181E030
S11304D00E94D6008FE39FE10197F1F700C000006E
S11304E060E080E00E94F20089E491E00E9444010F
S11304F061E080E00E94F2008AE591E00E944401FC
S11305009FEF23ED80E3915020408040E1F700C04D
S113051000001092040281E080930602809106029A
S1130520882389F2809104028111CDCF0E94510168
S113053010920602C8CF22E02093C0009093C50019
S11305408093C40088E18093C10086E08093C20058
S113055008959091C00095FFFCCF8093C600089544
S1130560CF93DF93EC0103C021960E94A9028881F6
S11305708111FACFDF91CF91089502C08091C60016
S11305808091C0008823D4F308959C0180E015C0B5
S11305909091C600882311F09B34B1F081E09F3420
S11305A009F080E09091C000992394F3EFE9FFE013
S11305B03197F1F700C000009A01A9014150510997
S11305C0232B81F780E0089581E0089595B180E2BE
S11305D0892785B9089520E030E01AC085B180628A
S11305E085B94FEF8BED95E0415080409040E1F7A5
S11305F000C0000085B18F7D85B94FEF8BED95E08C
S1130600415080409040E1F700C000002F5F3F4F11
S1130610233031051CF308950F931F93CF93DF9379
S1130620CDB7DEB7C058D1090FB6F894DEBF0FBE00
S1130630CDBF0E94BD028BE691E00E94B00280ED26
S113064097E00E94C502882341F10E94BD02809177
S113065004018F93809103018F93809106018F93FE
S1130660809105018F9389E791E09F938F931F9267
S113067080E88F938E010F5F1F4F1F930F930E948B
S11306802404C8010E94B00280E29EE40E94C502D4
S11306900FB6F894DEBF0FBECDBFC058DF4F0FB604
S11306A0F894DEBF0FBECDBFDF91CF911F910F91A4
S11306B008950F931F93CF93DF93CDB7DEB7C05840
S11306C0D1090FB6F894DEBF0FBECDBF0E94BD02A4
S11306D0809102018F93809101018F938EE891E0C4
S11306E09F938F931F9280E88F938E010F5F1F4F0C
S11306F01F930F930E942404C8010E94B00288E84B
S113070093E10E94C5020FB6F894DEBF0FBECDBFC1
S11307108823F1F00E94BD028DEA91E00E94B002AC
S11307203FEF89E698E1315080409040E1F700C006
S113073000008CEB91E00E94B00288E893E10E94F3
S1130740C502882329F086EC91E00E94B00281E082
S1130750C058DF4F0FB6F894DEBF0FBECDBFDF9198
S1130760CF911F910F910895CF93DF9384B180624D
S113077084B985B18F7D85B98FEC90E00E949B028E
S11307802FEF8BE792E9215080409040E1F700C0C1
S113079000000E94BD0284ED91E00E94B0028CE250
S11307A091E00E94C5020E940C03811119C00E94AD
S11307B0EB022FEF89E698E1215080409040E1F769
S11307C000C00000F4CF0E94E6022FEF8DE292E217
S11307D0215080409040E1F700C00000219602C003
S11307E0C0E0D0E0C330D10574F30E94BD028BEDAC
S11307F091E00E94B00280ED97E00E94C502811151
S11308000EC013C00E94E6022FEF82E597E021504C
S113081080409040E1F700C00000219602C0C0E093
S1130820D0E0C230D10574F30CC00E94EB022FEF6C
S113083089E698E1215080409040E1F700C0000033
S1130840F4CFDF91CF910895AEE0B0E0EAE2F4E0B6
S11308500C9415070D891E898F89988D26E02C83A9
S11308601A83098397FF02C080E090E801979E8372
S11308708D83AE01455E5F4F698D7A8DCE01019601
S11308800E9476044D815E8157FD0AC02F81388510
S1130890421753070CF49A01F801E20FF31F108278
S11308A02E96E4E00C943107AEE0B0E0EAE5F4E023
S11308B00C9415070D891E8986E08C831A8309839D
S11308C08FEF9FE79E838D83AE01475E5F4F6F89F5
S11308D0788DCE0101960E947604EF81F885E00FB1
S11308E0F11F10822E96E4E00C943107ABE0B0E0E7
S11308F0ECE7F4E00C9407076C017B018A01FC012E
S113090017821682838181FFCCC1CE0101963C01FE
S1130910F6019381F70193FD859193FF81917F0106
S1130920882309F4BAC1853239F493FD859193FF84
S113093081917F01853229F4B60190E00E946D0611
S1130940E7CF912C212C312CFFE1F315D8F08B3219
S113095079F038F4803279F08332A1F4232D2061C8
S11309601DC08D3261F0803369F4232D216016C0DF
S1130970832D8260382EE32DE4603E2E2AC0F32DB1
S1130980F8601DC037FC2DC020ED280F2A3040F040
S11309908E32B9F436FC81C1232D2064322E19C065
S11309A036FE06C08AE0989E200D1124922E11C0B6
S11309B0EAE02E9E200D1124222EF32DF0623F2E0C
S11309C008C08C3621F4832D8068382E02C0883606
S11309D041F4F70193FD859193FF81917F0181118A
S11309E0B3CF982F9F7D9554933028F40C5F1F4FFD
S11309F09FE399830DC0833631F0833771F08335DB
S1130A0009F059C021C0F801808189830E5F1F4F0E
S1130A1088248394912C530113C02801F2E04F0ED3
S1130A20511CF801A080B18036FE03C0692D70E02E
S1130A3002C06FEF7FEFC5010E9462064C01820184
S1130A40F32DFF773F2E16C0280122E0420E511CE1
S1130A50F801A080B18036FE03C0692D70E002C0A9
S1130A606FEF7FEFC5010E9457064C01F32DF0682C
S1130A703F2E820133FC1BC0822D90E0881699061C
S1130A80B0F4B60180E290E00E946D062A94F4CF9F
S1130A90F50137FC859137FE81915F01B60190E045
S1130AA00E946D0621102A9421E0821A9108811473
S1130AB0910471F7E8C0843611F0893641F5F801E4
S1130AC037FE07C060817181828193810C5F1F4F63
S1130AD008C060817181072E000C880B990B0E5F92
S1130AE01F4FF32DFF763F2E97FF09C090958095F9
S1130AF0709561957F4F8F4F9F4FF0683F2E2AE08E
S1130B0030E0A3010E94A906882E861845C08537C7
S1130B1031F4232D2F7EB22E2AE030E025C0932D10
S1130B20997FB92E8F36C1F018F4883579F0B5C0A5
S1130B30803719F0883721F0B0C0E92FE061BE2E6C
S1130B40B4FE0DC0FB2DF460BF2E09C034FE0AC0F4
S1130B50292F2660B22E06C028E030E005C020E12F
S1130B6030E002C020E132E0F801B7FE07C0608146
S1130B707181828193810C5F1F4F06C060817181F6
S1130B8080E090E00E5F1F4FA3010E94A906882E0B
S1130B908618FB2DFF773F2E36FE0DC0232D2E7FAA
S1130BA0A22E891458F434FE0BC032FC09C0832DE4
S1130BB08E7EA82E05C0B82CA32C03C0B82C01C06F
S1130BC0B92CA4FE0FC0FE01E80DF11D8081803315
S1130BD021F49A2D997EA92E09C0A2FE06C0B394D1
S1130BE0B39404C08A2D867809F0B394A3FC11C091
S1130BF0A0FE06C0B21488F4280C922C9B180EC0D8
S1130C00B21460F4B60180E290E00E946D06B394E1
S1130C10F7CFB21418F42B1802C0982C212CA4FE80
S1130C2010C0B60180E390E00E946D06A2FE17C0DA
S1130C30A1FC03C088E790E002C088E590E0B6011B
S1130C400CC08A2D867859F0A1FE02C08BE201C047
S1130C5080E2A7FC8DE2B60190E00E946D06891443
S1130C6038F4B60180E390E00E946D069A94F7CFC1
S1130C708A94F301E80DF11D8081B60190E00E9491
S1130C806D068110F5CF222009F442CEB60180E230
S1130C9090E00E946D062A94F6CFF6018681978132
S1130CA002C08FEF9FEF2B96E2E10C942307FC0127
S1130CB00590615070400110D8F7809590958E0F83
S1130CC09F1F0895FC016150704001900110D8F7F6
S1130CD0809590958E0F9F1F08950F931F93CF9328
S1130CE0DF93FB01238121FD03C08FEF9FEF2CC015
S1130CF022FF16C04681578124813581421753074C
S1130D0044F4A081B1819D012F5F3F4F3183208343
S1130D108C93268137812F5F3F4F3783268314C0FE
S1130D208B01EC01FB010084F185E02D0995892BF1
S1130D30E1F6D80116968D919C9117970196179616
S1130D409C938E931697CE01DF91CF911F910F91B3
S1130D500895FA01AA27283051F1203181F1E8944D
S1130D606F936E7F6E5F7F4F8F4F9F4FAF4FB1E09A
S1130D703ED0B4E03CD0670F781F891F9A1FA11D95
S1130D80680F791F8A1F911DA11D6A0F711D811D96
S1130D90911DA11D20D009F468943F912AE0269F5B
S1130DA011243019305D3193DEF6CF010895462FBA
S1130DB04770405D4193B3E00FD0C9F7F6CF462F9B
S1130DC04F70405D4A3318F0495D31FD4052419304
S1130DD002D0A9F7EACFB4E0A695979587957795C1
S1130DE06795BA95C9F700976105710508959B0148
S1130DF0AC010A2E06945795479537952795BA95D1
S1130E00C9F7620F731F841F951FA01D08952F92A9
S1130E103F924F925F926F927F928F929F92AF9286
S1130E20BF92CF92DF92EF92FF920F931F93CF93D3
S1130E30DF93CDB7DEB7CA1BDB0B0FB6F894DEBF6A
S1130E400FBECDBF09942A88398848885F846E8490
S1130E507D848C849B84AA84B984C884DF80EE80DA
S1130E60FD800C811B81AA81B981CE0FD11D0FB6E3
S1130E70F894DEBF0FBECDBFED010895F894FFCF07
S1130E8001E601F401000253595354454D3A2041FF
S1130E9043544956450053595354454D3A205245FD
S1130EA041445900436F756E743A20257500496EAC
S1130EB074727573696F6E204465742E0053746187
S1130EC07274696E672E2E2E0020202052455345E1
S1130ED054204E4F57212020200052657475726EA5
S1130EE0696E67205245414459200041542B4357B1
S1130EF04D4F44453D310D0A0041542B43574A415F
S1130F00503D222573222C222573220D0A004154C0
S1130F102B43495053544152543D22544350222CA4
S1130F20222573222C31313830300D0A0041542BE4
S1130F3043495053454E443D390D0A00494E5452DD
S1130F405553494F4E0041542B434950434C4F5342
S1130F50450D0A00415445300D0A0041542B4349C4
S1130F604653520D0A0031302E3232322E32342E94
S1130F7032343900676F64776A64716E31514000AE
S1070F80646E000097
S9030000FC
